:100000000C9462000C947F000C947F000C947F0091
:100010000C947F000C947F000C947F000C941303CD
:100020000C947F000C947F000C947F000C947F0054
:100030000C947F000C947F000C947F000C947F0044
:100040000C946F030C947F000C947F000C947F0041
:100050000C947F000C947F000C947F000C947F0024
:100060000C947F000C947F00000000002400270007
:100070002A000000000023002600290000000008DC
:10008000000201000003040700000000000000005F
:10009000010204081020408001020408102001021F
:1000A0000408102000000000250028002B00040494
:1000B0000404040404040202020202020303030310
:1000C0000303020011241FBECFEFD8E0DEBFCDBF77
:1000D00021E0A6E4B1E001C01D92A838B207E1F723
:1000E00011E0A0E0B1E0E6EEF0E102C005900D9273
:1000F000A634B107D9F70E94B9030C9471080C9487
:100100000000833081F028F4813099F08230A1F032
:1001100008958730A9F08830B9F08430D1F4809107
:1001200080008F7D03C0809180008F778093800056
:10013000089584B58F7702C084B58F7D84BD0895FE
:100140008091B0008F7703C08091B0008F7D809345
:10015000B0000895CF93DF93282F30E0F901E458E1
:10016000FF4F8491F901E057FF4FD491F901E25517
:10017000FF4FC491CC2391F081110E948100EC2F9C
:10018000F0E0EE0FFF1FEE58FF4FA591B491EC91F8
:10019000ED2381E090E021F480E002C080E090E077
:1001A000DF91CF9108951F93CF93DF93282F30E0F5
:1001B000F901E458FF4F8491F901E057FF4FD491C2
:1001C000F901E255FF4FC491CC23C9F0162F8111DC
:1001D0000E948100EC2FF0E0EE0FFF1FEC55FF4F67
:1001E000A591B4918FB7F894111105C09C91ED2F92
:1001F000E095E92302C0EC91ED2BEC938FBFDF91EA
:10020000CF911F91089590910001981324C0E2ECC2
:10021000F0E0E4919FEF90930001E130B9F098F0A5
:10022000E230C9F4909170009D7F9093700091E04E
:100230009093B0009091B100987F94609093B1003A
:100240001092B30008C010926E0005C090916F002C
:100250009D7F90936F0060E00C94D300CF93DF9369
:1002600090E0FC01E057FF4F2491FC01E255FF4F65
:100270008491882361F190E0880F991FFC01E8596F
:10028000FF4FC591D491FC01EC55FF4FA591B4915E
:10029000611109C09FB7F8948881209582238883D3
:1002A000EC912E230BC0623061F49FB7F894388133
:1002B000822F809583238883EC912E2B2C939FBFD4
:1002C00006C08FB7F894E8812E2B28838FBFDF916B
:1002D000CF9108958330910528F0880F991F0497D6
:1002E0000197F1F708953FB7F894809147019091F5
:1002F0004801A0914901B0914A0126B5A89B05C0CB
:100300002F3F19F00196A11DB11D3FBFBA2FA92F94
:10031000982F8827820F911DA11DB11DBC01CD0111
:1003200043E0660F771F881F991F4A95D1F70895FC
:100330008F929F92AF92BF92CF92DF92EF92FF92F5
:100340006B017C010E9473014B015C01C114D1045B
:10035000E104F104F1F00E947301DC01CB01881982
:100360009909AA09BB09883E9340A105B10570F31C
:1003700021E0C21AD108E108F10888EE880E83E076
:10038000981EA11CB11CC114D104E104F10419F799
:10039000DDCFFF90EF90DF90CF90BF90AF909F9018
:1003A0008F9008951F93CF93DF93CAEFD0E013E0AF
:1003B00061E087E00E94D30060E084E00E94D30007
:1003C000CE010E946A0160E087E00E94D30061E0F4
:1003D00084E00E94D300CE010E946A01115041F7CF
:1003E0002197C634D10519F7DF91CF911F91089558
:1003F0008F929F92AF92BF92CF92DF92EF92FF9235
:10040000CF93DF93EB0128EE33E0DC010E94AB07D2
:100410004B015C016E01CC0CDD1C0D2C000CEE08B8
:10042000FF08C814D904EA04FB04DCF48C189D0806
:10043000AE08BF0860E084E00E94D30061E087E07E
:100440000E94D300CE010E946A0161E084E00E9414
:10045000D30060E087E00E94D300CE010E946A01D1
:10046000E0CFDF91CF91FF90EF90DF90CF90BF90E2
:10047000AF909F908F90089589E00E94AA00892BE9
:1004800089F082E00E94AA00892B71F08CE00E9422
:10049000AA00892B59F086E00E94AA00892B41F01E
:1004A00080E0089581E0089582E0089584E0089551
:1004B00088E00895CF93C82F80FF02C061E001C09B
:1004C00060E08AE00E94D300C1FF02C061E001C089
:1004D00060E083E00E94D300C2FF02C061E001C07F
:1004E00060E08DE00E94D300C3FF02C061E001C064
:1004F00060E085E0CF910C94D300CF93C82F0E9489
:100500005A02C23069F028F4C13099F460E774E00F
:100510000CC0C43041F0C83061F46EE772E005C031
:1005200068E372E002C063E573E086E990E00E9450
:10053000F80180E0CF910C945A02CF92DF92EF92B3
:10054000FF92CF938FB7F894C0906201D09063016F
:10055000E0906401F09065018FBF2FB7F89480910F
:10056000620190916301A0916401B09165012FBF78
:100570008C199D09AE09BF09883B9B40A105B105B7
:1005800098F40E943C02C82F882339F30E947D0210
:100590000E943C028111FCCF6AE070E080E090E0B4
:1005A0000E9498018C2F01C080E0CF91FF90EF90C6
:1005B000DF90CF90089583E00E945A026CED75E0C1
:1005C0008FEF90E00E94F8018CE00E945A026CEDDF
:1005D00075E08FEF90E00E94F80183E00E945A02DC
:1005E0006CED75E08FEF90E00E94F8018CE00E94C6
:1005F0005A026CED75E08FEF90E00C94F80186E004
:100600000E945A020E94D20189E00E945A020E946E
:10061000D20186E00E945A020E94D20189E00E9423
:100620005A020C94D2011F920F920FB60F9211240E
:100630002F933F934F935F936F937F938F939F93EA
:10064000AF93BF93EF93FF93809156019091570121
:10065000A0915801B0915901892B8A2B8B2B51F114
:1006600080914D01E0914E01F0914F0190818927D9
:1006700080838091560190915701A0915801B091CB
:100680005901181619061A061B06C4F48091560162
:1006900090915701A0915801B09159010197A1097A
:1006A000B1098093560190935701A0935801B093DC
:1006B000590104C0809100010E940301FF91EF9154
:1006C000BF91AF919F918F917F916F915F914F916A
:1006D0003F912F910F900FBE0F901F9018951F9272
:1006E0000F920FB60F9211242F933F938F939F93E6
:1006F000AF93BF938091620190916301A0916401D7
:10070000B09165013091460126E0230F2D3720F48A
:100710000296A11DB11D05C029E8230F0396A11D56
:10072000B11D209346018093620190936301A093D1
:100730006401B09365018091470190914801A091B7
:100740004901B0914A010196A11DB11D8093470155
:1007500090934801A0934901B0934A01BF91AF9192
:100760009F918F913F912F910F900FBE0F901F90EF
:100770001895CF93DF9300D000D01F92CDB7DEB78E
:10078000789484B5826084BD84B5816084BD85B56C
:10079000826085BD85B5816085BD80916E00816078
:1007A00080936E001092810080918100826080931E
:1007B0008100809181008160809381008091800020
:1007C0008160809380008091B10084608093B1004B
:1007D0008091B00081608093B00080917A00846045
:1007E00080937A0080917A00826080937A00809171
:1007F0007A008E7F80937A0080917A00806880935F
:100800007A001092C10062E089E00E942E0162E04D
:1008100082E00E942E0162E08CE00E942E0162E0E4
:1008200086E00E942E0161E08AE00E942E0161E0D4
:1008300083E00E942E0161E08DE00E942E0161E0C4
:1008400085E00E942E0161E084E00E942E0161E0BB
:1008500087E00E942E01109287010E943C0288309E
:1008600031F00E943C02823009F020C20FC288E0C1
:100870000E945A0288E00E947D0287E00E945A028C
:100880000E943C028111FCCF0E945A0268EE73E084
:1008900080E090E00E94980160E084E00E94D30034
:1008A00094E2492E94EF592E612C712C0E943C0247
:1008B0008111D7CF05E011E081E090E000904B017D
:1008C00002C0880F991F0A94E2F70E945A02809191
:1008D0004B0190914C01019690934C0180934B01F8
:1008E000049724F010924C0110924B01F8012190D2
:1008F00031908F0180910001873029F4E2ECF0E023
:10090000F491FD837BC08F3F09F0B1C187E08093F4
:100910000001E2ECF0E084918F3F09F4A8C181303E
:1009200019F1823009F444C0811167C014BC15BCB0
:1009300084B5826084BD85B5816085BDE5EBF0E05E
:100940008491E82FF0E0EE0FFF1FEC55FF4F8591EB
:1009500094919093550180935401E7E9F0E08491DC
:10096000809353011D824DC010928000109281002F
:1009700080918100886080938100809181008160F6
:1009800080938100E5EBF0E08491E82FF0E0EE0F3A
:10099000FF1FEC55FF4F85919491909352018093E6
:1009A0005101E7E9F0E0849180935001F1E023C028
:1009B0001092B0001092B1008091B00082608093DC
:1009C000B0008091B10081608093B100E5EBF0E070
:1009D0008491E82FF0E0EE0FFF1FEC55FF4F85915B
:1009E000949190934F0180934E01E7E9F0E0849158
:1009F00080934D01F2E0FD8304C08D832D8127FD9E
:100A000036C161E087E00E942E014101A12CB12C8A
:100A10008D818D7F09F0B9C060E079E08DE390E0D1
:100A2000A50194010E940E0829833A834B835C83BD
:100A300069017A0181E0C81AD108E108F1089FEF45
:100A4000C916D104E104F10409F008F44BC060E2D6
:100A500071EA87E090E0A50194010E940E08690107
:100A60007A01E1E0CE1AD108E108F108FD81F23007
:100A700001F52FEFC216D104E104F10409F008F4E6
:100A800068C268E478EE81E090E0A50194010E94DC
:100A90000E0869017A0181E0C81AD108E108F1085D
:100AA0009FEFC916D104E104F10409F0D0F583E009
:100AB00065C0EFEFCE16D104E104F104A9F0A0F077
:100AC000C301B201A50194010E940E0869017A01D7
:100AD000F1E0CF1AD108E108F1082D81222309F4B1
:100AE000DDC12EC281E001C082E02D81211146C00E
:100AF00013C089819A81AB81BC812AE0B595A79505
:100B0000979587952A95D1F76C017D01E1E0CE1A82
:100B1000D108E108F10885E095B5987F892B85BD5E
:100B200062C0C301B201A50194010E940E086901CF
:100B30007A01F1E0CF1AD108E108F1082FEFC216CF
:100B4000D104E104F10409F008F4A6C162E17AE7F6
:100B500080E090E0A50194010E940E0869017A01ED
:100B600081E0C81AD108E108F1089FEFC916D10445
:100B7000E104F10411F008F0B3C185E09091B100F7
:100B8000987F892B8093B1002EC060E079E08DE3DF
:100B900090E0A50194010E940E0869017A0181E0AC
:100BA000C81AD108E108F108C114D10491E0E9069E
:100BB000F10478F0C301B201A50194010E940E086E
:100BC00069017A01E1E0CE1AD108E108F10893E069
:100BD00001C091E0FD81F13031F480918100887F86
:100BE000892B809381009101220F331FA3E7B0E08E
:100BF0000E94620828EE33E040E050E00E94400886
:100C00008D81813099F0823019F1811130C0C7BCDB
:100C100020935E0130935F01409360015093610126
:100C200080916E00826080936E0021C0D092890016
:100C3000C092880020935A0130935B0140935C017D
:100C400050935D0180916F00826080936F000FC0B0
:100C5000C092B3002093560130935701409358013E
:100C6000509359018091700082608093700065E913
:100C700070E080E090E00E94980187E00E9403010C
:100C800091E00534190709F017CE10CE81E080936A
:100C9000870182E00E945A0282E00E947D028DE07C
:100CA0000E945A020E943C028111FCCF0E94FF0266
:100CB00054E0852E912CA12CB12C06E611E0702E6B
:100CC00060E0E62E60E0F62E27C084E00E945A0223
:100CD00064E670E080E090E00E9498010E943C028F
:100CE000811127C082E00E945A0264E670E080E031
:100CF00090E00E9498010E943C0281111AC088E095
:100D00000E945A0264E670E080E090E00E94980140
:100D10000E943C0281110DC081E00E945A0264E6EB
:100D200070E080E090E00E9498010E943C028823DD
:100D300061F28FE00E945A0268EE73E080E090E07A
:100D40000E94980180E00E945A026AEF70E080E001
:100D500090E00E94980180918701811165C02FB7B2
:100D6000F8946091620170916301809164019091A7
:100D700065012FBF611571058105910511F00E9474
:100D8000050810928601809186018D3008F04AC0D6
:100D90000E940008A50194010E940E08662341F0FC
:100DA000613041F0623041F0633039F468E005C0F1
:100DB00061E003C062E001C064E0E0918601662466
:100DC00063946E0E60928601F0E0EA59FE4F6083F4
:100DD00046E6442E41E0542E62018C2D801B861580
:100DE000B0F4F60181916F010E947D0266E970E026
:100DF00080E090E00E949801F0CF0E949D0288233D
:100E000009F447C0F20191912F01891342C0842D4A
:100E10008719861590F368EE73E080E090E00E94F9
:100E20009801B1CF0E94FF0280918701813051F576
:100E3000109286010E949D02E0918601DD24D394E8
:100E4000DE0ED0928601F0E0EA59FE4F808336E64E
:100E5000432E31E0532E842D801B8D1550F40E94BB
:100E60009D02882369F0F20191912F01891799F36E
:100E700007C064E670E080E090E00E949801DACF5D
:100E80000E94DB02E114F10409F446CF0E94000045
:100E900043CF0E94DB02C8CF84E070CEEFEFCE16C6
:100EA000D104E104F104D1F0C8F069E07DE380E011
:100EB00090E0A50194010E940E0869017A0181E089
:100EC000C81AD108E108F1089FEFC916D104E1045E
:100ED000F10411F008F00DCE84E01ECE83E01CCEAC
:100EE00069E07DE380E090E0A50194010E940E0896
:100EF00069017A01F1E0CF1AD108E108F1082FEF7A
:100F0000C216D104E104F104C9F0C0F089819A81CC
:100F1000AB81BC81EAE0B595A79597958795EA9551
:100F2000D1F76C017D01E1E0CE1AD108E108F108AA
:100F3000FD81FF2309F4EFCD87E020CE86E0D5CDFB
:100F40008FEFC816D104E104F10409F048F684E0FB
:100F5000CCCD82E013CE0E946208B7FF0895821BB9
:100F6000930B08958F929F92AF92BF92CF92DF9290
:100F7000EF92FF92CF93DF93EC01688179818A81B0
:100F80009B81611571058105910521F464E279ED7C
:100F90008BE597E02DE133EF41E050E00E940E0831
:100FA00049015A019B01AC01A7EAB1E40E942D0856
:100FB0006B017C01ACEEB4EFA50194010E943B08EB
:100FC000DC01CB018C0D9D1DAE1DBF1DB7FF03C005
:100FD0000197A109B04888839983AA83BB83BC0188
:100FE000CD019F77DF91CF91FF90EF90DF90CF9071
:100FF000BF90AF909F908F9008950E94B207089580
:1010000081E091E00E94B20708956093010170931E
:10101000020180930301909304010895052E97FB2C
:101020001EF400940E94250857FD07D00E94400836
:1010300007FC03D04EF40C9425085095409530954C
:1010400021953F4F4F4F5F4F089590958095709534
:1010500061957F4F8F4F9F4F08950E946208A59F13
:10106000900DB49F900DA49F800D911D11240895A3
:10107000B7FF0C942D080E942D08821B930B089536
:10108000A1E21A2EAA1BBB1BFD010DC0AA1FBB1F8C
:10109000EE1FFF1FA217B307E407F50720F0A21BFE
:1010A000B30BE40BF50B661F771F881F991F1A946B
:1010B00069F760957095809590959B01AC01BD0195
:1010C000CF010895A29FB001B39FC001A39F700DEF
:1010D000811D1124911DB29F700D811D1124911D40
:0610E0000895F894FFCF13
:1010E600FF010000008801B80100000B02000000AB
:1010F6000088010000000000004A01000026014AA5
:10110600018801000026014A010000880100000054
:1011160000260100004A01000088010000B8010015
:06112600000B02000000B6
:107800000C94343C0C94513C0C94513C0C94513CE1
:107810000C94513C0C94513C0C94513C0C94513CB4
:107820000C94513C0C94513C0C94513C0C94513CA4
:107830000C94513C0C94513C0C94513C0C94513C94
:107840000C94513C0C94513C0C94513C0C94513C84
:107850000C94513C0C94513C0C94513C0C94513C74
:107860000C94513C0C94513C11241FBECFEFD8E036
:10787000DEBFCDBF11E0A0E0B1E0EAE8FFE702C063
:1078800005900D92A230B107D9F712E0A2E0B1E065
:1078900001C01D92AD30B107E1F70E942D3D0C945F
:1078A000C33F0C94003C982F95959595959595958B
:1078B000905D8F708A307CF0282F295A8091C0000B
:1078C00085FFFCCF9093C6008091C00085FFFCCF60
:1078D0002093C6000895282F205DF0CF982F809127
:1078E000C00085FFFCCF9093C6000895EF92FF92F1
:1078F0000F931F93EE24FF2487018091C00087FD22
:1079000017C00894E11CF11C011D111D81E2E8164D
:1079100081EAF80687E0080780E0180770F3E09135
:107920000401F091050109958091C00087FFE9CF1E
:107930008091C6001F910F91FF90EF9008950E94D3
:10794000763C982F8091C00085FFFCCF9093C600B5
:1079500091362CF490330CF09053892F089597555D
:10796000892F08951F930E949F3C182F0E949F3CCF
:107970001295107F810F1F9108951F93182F882350
:1079800021F00E94763C1150E1F71F9108951F935A
:10799000182F0E94763C803249F0809103018F5F5E
:1079A000809303018530C1F01F9108958091C0003C
:1079B00085FFFCCF84E18093C6008091C00085FFE5
:1079C000FCCF1093C6008091C00085FFFCCF80E102
:1079D0008093C6001F910895E0910401F091050184
:1079E00009951F9108950E94763C803241F0809164
:1079F00003018F5F80930301853081F008958091AA
:107A0000C00085FFFCCF84E18093C6008091C00058
:107A100085FFFCCF80E18093C6000895E0910401CA
:107A2000F09105010995089548EC50E08823A1F0F4
:107A30002D9A28EE33E0FA013197F1F721503040CA
:107A4000D1F72D9828EE33E0FA013197F1F7215064
:107A50003040D1F7815061F708953F924F925F9285
:107A60006F927F928F929F92AF92BF92CF92DF924E
:107A7000EF92FF920F931F93CF93DF93000082E06A
:107A80008093C00080E18093C4001092C50088E11B
:107A90008093C10086E08093C2005098589A259A3E
:107AA00081E00E94143D24E1F22E9EE1E92E85E959
:107AB000D82E0FE0C02E10E1B12EAA24A394B1E479
:107AC0009B2EA6E58A2EF2E57F2EE0E26E2E79E46B
:107AD000572E63E5462E50E5352E0E94763C8033C6
:107AE000B1F18133B9F1803409F46FC0813409F404
:107AF00076C0823409F485C0853409F488C08035A5
:107B000031F1823521F1813511F1853509F485C0D6
:107B1000863509F48DC0843609F496C0843709F49B
:107B200003C1853709F472C1863709F466C08091B4
:107B300003018F5F80930301853079F6E0910401A2
:107B4000F091050109950E94763C803351F60E9420
:107B5000F33CC3CF0E94763C803249F78091C0004D
:107B600085FFFCCFF092C6008091C00085FFFCCF5E
:107B70009092C6008091C00085FFFCCF8092C60025
:107B80008091C00085FFFCCF7092C6008091C0003C
:107B900085FFFCCF6092C6008091C00085FFFCCFBE
:107BA0005092C6008091C00085FFFCCF4092C60075
:107BB0008091C00085FFFCCF3092C6008091C0004C
:107BC00085FFFCCFB092C60088CF0E94763C8638F5
:107BD00008F4BDCF0E94763C0E94F33C7ECF0E9409
:107BE000763C803809F49CC0813809F40BC1823896
:107BF00009F430C1883909F48FC080E00E94C73C85
:107C00006CCF84E10E94BD3C0E94F33C66CF85E0CE
:107C10000E94BD3C0E94F33C60CF0E94763C809362
:107C200006010E94763C809307010E94F33C55CFE9
:107C30000E94763C803309F411C183E00E94BD3C70
:107C400080E00E94C73C49CF0E94763C80930902A5
:107C50000E94763C8093080280910C028E7F809374
:107C60000C020E94763C853409F409C18091080217
:107C700090910902892B89F000E010E00E94763C87
:107C8000F801E85FFE4F80830F5F1F4F809108026D
:107C9000909109020817190788F30E94763C8032F8
:107CA00009F045CF80910C0280FFF5C0609106017C
:107CB00070910701660F771F7093070160930601AB
:107CC000A0910802B09109021097C9F0E8E0F1E034
:107CD0009B01AD014E0F5F1FF999FECF32BD21BD53
:107CE000819180BDFA9AF99A2F5F3F4FE417F5070B
:107CF00099F76A0F7B1F70930701609306018091CB
:107D0000C00085FFFCCFF092C6008091C00085FFC7
:107D1000FCCFB092C600E1CE83E00E94C73CDDCE2E
:107D200082E00E94C73CD9CE0E94763C8093090233
:107D30000E94763C80930802809106019091070191
:107D4000880F991F90930701809306010E94763C4B
:107D5000853409F49AC080910C028E7F80930C02C6
:107D60000E94763C803209F0B8CE8091C00085FF39
:107D7000FCCFF092C600A0910802B09109021097C2
:107D8000C1F180910C02082F0170182F1695117007
:107D9000E0910601F0910701AF014F5F5F4FBA011B
:107DA00020E030E00023B1F4112339F49491809164
:107DB000C00085FFFCCF9093C6002F5F3F4FCB01E3
:107DC0000196FA012A173B0780F4BC014F5F5F4F11
:107DD000002351F3F999FECFF2BDE1BDF89A90B5B9
:107DE0008091C00085FFFCCFE6CF709307016093C0
:107DF00006018091C00085FDE5CE8091C00085FF21
:107E0000F8CFE0CE81E00E94C73C67CE0E94763C6E
:107E1000803209F08CCE8091C00085FFFCCFF092BB
:107E2000C6008091C00085FFFCCFE092C600809123
:107E3000C00085FFFCCFD092C6008091C00085FFB6
:107E4000FCCFC092C6008091C00085FFFCCFB092ED
:107E5000C60043CE80E10E94C73C3FCE0E94763CE4
:107E60000E94763C182F0E94763C112309F483C0AF
:107E7000113009F484C08FE00E94C73C2ECE80915F
:107E80000C02816080930C02F1CE80910C02816023
:107E900080930C0265CF809107018823880F880B9F
:107EA0008A2180930B028091060190910701880F2F
:107EB000991F90930701809306018091080280FF2B
:107EC00009C08091080290910902019690930902DD
:107ED00080930802F894F999FECF1127E0910601EA
:107EE000F0910701C8E0D1E0809108029091090269
:107EF000103091F40091570001700130D9F303E084
:107F000000935700E8950091570001700130D9F3B4
:107F100001E100935700E8950990199000915700EE
:107F200001700130D9F301E000935700E8951395F3
:107F3000103498F011270091570001700130D9F3E7
:107F400005E000935700E89500915700017001305B
:107F5000D9F301E100935700E8953296029709F0B2
:107F6000C7CF103011F00296E5CF11248091C000E8
:107F700085FFC5CEC8CE8EE10E94C73CAECD85E957
:0A7F80000E94C73CAACDF894FFCF81
:027F8A00800075
:040000030000780081
:00000001FF
